:03000000020A13DE
:0C0A1300787FE4F6D8FD758172020A5A63
:100B95006161616161616161006F6F6F6F6F6F6F3F
:100BA5006F006363636363636363003F065B4F6664
:100BB5006D7D077F6F777C395E79710040761E7099
:100BC50038375C733E783D6750376EBF86DBCFE6BE
:100BD500EDFD87FFEF46010204081020408000016B
:0E0BE5000200030000000400000000000000F9
:100E6100012100013801083A1A1A1A1A1A1A1A1A13
:100E7100082D0F0F0F0F0F0F0F0F01350001450048
:100C4000E539C3940A400AE53975F00A84F5248031
:100C500003752410E53975F00A8485F02575261191
:100C6000E52C75F00A84F527E52C75F00A8485F0EB
:100C700028E52275F00A84F52AE52275F00A8485B4
:060C8000F02B7529112282
:100CCA007B007A0079127519037F02120D0CE51266
:100CDA00C4540775F00AA4FFE512540F2FF522E554
:100CEA0013C4540775F00AA4FFE513540F2FF52C0B
:100CFA00E514C4540375F00AA4FFE514540F2FF544
:010D0A0039AF
:010D0B0022C5
:100BF300E52275F00A84C454F0FFE52275F00A84F7
:100C0300E5F02FF512E52C75F00A84C454F0FFE5E6
:100C13002C75F00A84E5F02FF513E53975F00A8495
:100C2300C454F0FFE53975F00A84E5F02FF5147B21
:0D0C3300007A0079127519037F02020D7A14
:040F88007F3CDFFECD
:010F8C002242
:100B2300AE437580F0120F88E58054F0F54375806D
:100B33000F120F88E580540F42436343FFEE654372
:100B4300704CAE37854337E5376040C2D5EE70044D
:100B5300D2D58012EEB5370E0542E542C394144058
:100B630005754212D2D530D525E537C4540F900B05
:100B7300E393FE6019E537540F93FF6011EE25E010
:100B830025E0FEEF2E240CF5368003E4F542758054
:010B9300FF62
:010B9400223E
:100EFF00E4FEEF25E0FF92C0D2C3C2C30EBE08F2DC
:010F0F0022BF
:100DA500E54A900BDB93F4FF120EFF7424254AF8F5
:100DB500E6900BB093FF120EFFD2CCC2CC054AE5EC
:0A0DC5004AC394084003E4F54A22F3
:03000B00020DF8EB
:100DF800C0E0C083C082C0D075D000C000C006C0AB
:100E080007120DA5D201D007D006D000D0D0D082CD
:050E1800D083D0E032A0
:070F3B00D291120F42D29087
:040F42007F05DFFE4A
:010F46002288
:0D0F2100120F3BC291120F42C290020F420C
:0A0F5200C291120F3DD291020F422E
:0A0F5C00C291120F3DC290020F4235
:080F7000120F3BC290020F4278
:0A0ED400AC07120F217FA2120E825C
:0C0EDE00120F3BA29192D5C290020F426D
:020E8200AE07B9
:100E84007D08EE30E704D2918002C291EE25E0FEA7
:0A0E9400120F3DC290120F42DDE87C
:010E9E002231
:100E9F007D08D291D290120F42EE25E0FE309101E3
:0A0EAF000EC290120F42DDECAF06F8
:010EB9002216
:100D7A00120ED420D522AF04120E82120EDE20D516
:100D8A0017120966FF120E82740129F9E43AFA125F
:0B0D9A000EDE20D503D519E9020F5230
:100D0C00120ED420D536AF04120E82120EDE20D570
:100D1C002B120F217FA3120E82120EDE20D51D1274
:100D2C000E9FEF1209AC740129F9E43AFAE5196443
:0F0D3C00016003120F5CD519E6120F70020F52FF
:100A9F00E4F593F594F591F592F595F596F5B1F595
:100AAF00B2F5B3F5B4F5C9F5CAF5CBF5CCF5E1F56B
:100ABF00E2F54A758E80758CD4758ACDD2A9D28C09
:100ACF00D2AF7F0878247410F608DFFC7F08120C71
:100ADF00CAD2D5E522C3943C4002D2D5E52CC394AB
:100AEF003C4002D2D5E539C394184002D2D530D557
:100AFF000C752227752C2775390C120BF3120C402D
:100B0F00752611752911E4F544F536F537F543F5DA
:030B1F0042F52379
:010B220022B0
:060E1D008B128A138914F8
:100E2300E4FFAB12AA13A9148F8275830012097F02
:0B0E3300F599D2002000FD0FBF08E77A
:010E3E002291
:080F78008F99D2002000FD2238
:100EBA00AD07AC06538EEF538EF7438E048CD6AF34
:0A0ECA00058FD753AFFB438E1022B3
:100C8600BF020C438E017FE87EFF120EBA801BC2A4
:100C96008E538EFE438E405389BF5389CF758DFF89
:100CA600758BE8C2AB538FFDD28EE598543F444016
:100CB600F598D2ACD29C53A23F43A280C200E4F581
:040CC60047F5462286
:03002300020D4B80
:100D4B00C0E0C0D075D000C000309815C298745365
:100D5B002546F8A6990546E546C3942040037546FB
:0F0D6B0000309904C299C200D000D0D0D0E0323D
:100DCF00E4F593F594F591F592F595F596F5B1F562
:100DDF00B2F5B3F5B4F5C9F5CAF5CBF5CCF5E1F538
:090DEF00E27F01120C86D2AF2252
:0A0F47007F0878247411F608DFFC1F
:010F5100227D
:060E3F008B128A138914D6
:100E4500E4FFAB12AA13A9148F8275830012097FE0
:0B0E5500FE74242FF8A6060FBF08E76C
:010E6000226F
:100F1000E4F5217F08784B7411F608DFFCE4F55303
:010F200022AE
:0D0F2E00C2C7C2C67BFF7A0B7995020E1D6B
:080F8000D2C7C2C67535032279
:100EEA00E5357BFFB403067A0B799E80047A0B7989
:050EFA00A7120E1D22ED
:0A0F6600D2C7D2C6E4F535020F1021
:10080000E4F508120DCF120A9F120F10E4F535E53A
:10081000476546601720001474532547F8E6F5082D
:100820000547E547C394204003E4F5473001E0C2A3
:1008300001C3E5499410E54894274008E4F548F5DC
:1008400049120EEAE535B4031EAE48AF497C137D6C
:10085000881209BEED4C700FE545D394054006E4BF
:10086000F545120F2E05450549E54970020548FF7B
:10087000AE487C007DC81209BEED4C7025E53514EC
:10088000600F146014240270197B007A00794B8089
:100890000E7B007A00793A80067B007A00792D126F
:1008A0000E3F0523E523C394324006E4F523120BE3
:1008B00023E536700302093FE5357022E536C3941F
:1008C00011401BE536D3941A5014E53675F01184A7
:1008D000AFF0AE210521744B2EF8A607805EE536F9
:0A08E000641B702AE52164087052C1
:1008EA00F509744B2509F8E62430FF740A2509F83E
:1008FA00A6070509E509B408E97B007A00790A1216
:02090A000E1DC0
:10090C00802EE535B4020DE536B41C08E4F535123D
:10091C000F10801CE535B4030AE536B41E05120F22
:10092C0066800DE535B40108E536B41D03120F8061
:10093C00E4F536E508700302080FB474057535014B
:10094C008012E508B466057535028008E508B46FB9
:0A095C0003120F80E4F50802080FF3
:100A1F00020800E493A3F8E493A34003F68001F2E5
:100A2F0008DFF48029E493A3F85407240CC8C333D8
:100A3F00C4540F4420C8834004F456800146F6DFA7
:100A4F00E4800B0102040810204080900E61E47EC8
:100A5F00019360BCA3FF543F30E509541FFEE4939C
:100A6F00A360010ECF54C025E060A840B8E493A363
:100A7F00FAE493A3F8E493A3C8C582C8CAC583CA8E
:100A8F00F0A3C8C582C8CAC583CADFE9DEE780BE46
:010E81000070
:10096600BB010689828A83E0225002E722BBFE028F
:09097600E32289828A83E49322C2
:10097F00BB010CE58229F582E5833AF583E022502D
:10098F0006E92582F8E622BBFE06E92582F8E22277
:0D099F00E58229F582E5833AF583E4932291
:1009AC00BB010689828A83F0225002F722BBFE012A
:0209BC00F32224
:1009BE00BC000BBE0029EF8DF084FFADF022E4CC1D
:1009CE00F875F008EF2FFFEE33FEEC33FCEE9DECE6
:1009DE00984005FCEE9DFE0FD5F0E9E4CEFD22ED2C
:1009EE00F8F5F0EE8420D21CFEADF075F008EF2F76
:1009FE00FFED33FD4007985006D5F0F222C398FD67
:050A0E000FD5F0EA2203
:00000001FF
