:03000000020A20D1
:0C0A2000787FE4F6D8FD758173020A6748
:100BA2006161616161616161006F6F6F6F6F6F6F32
:100BB2006F006363636363636363003F065B4F6657
:100BC2006D7D077F6F777C395E79710040761E708C
:100BD20038375C733E783D6750376EBF86DBCFE6B1
:100BE200EDFD87FFEF46010204081020408000015E
:0E0BF2000200030000000400000000000000EC
:100E500001432A012100013801083A1A1A1A1A1A04
:100E60001A1A1A082D0F0F0F0F0F0F0F0F01350051
:030E700001460038
:100C4D00E539C3940A400AE53975F00A84F5248024
:100C5D0003752410E53975F00A8485F02575261184
:100C6D00E52C75F00A84F527E52C75F00A8485F0DE
:100C7D0028E52275F00A84F52AE52275F00A8485A7
:060C8D00F02B7529112275
:100CD7007B007A0079127519037F02120D19E5124C
:100CE700C4540775F00AA4FFE512540F2FF522E547
:100CF70013C4540775F00AA4FFE513540F2FF52CFE
:100D0700E514C4540375F00AA4FFE514540F2FF536
:010D170039A2
:010D180022B8
:100C0000E52275F00A84C454F0FFE52275F00A84E9
:100C1000E5F02FF512E52C75F00A84C454F0FFE5D9
:100C20002C75F00A84E5F02FF513E53975F00A8488
:100C3000C454F0FFE53975F00A84E5F02FF5147B14
:0D0C4000007A0079127519037F02020D87FA
:040F9C007F3CDFFEB9
:010FA000222E
:100B3000AE447580F0120F9CE58054F0F54475804A
:100B40000F120F9CE580540F42446344FFEE65444E
:100B5000704CAE37854437E5376040C2D5EE70043F
:100B6000D2D58012EEB5370E0542E542C39414404B
:100B700005754212D2D530D525E537C4540F900BF8
:100B8000F093FE6019E537540F93FF6011EE25E0F6
:100B900025E0FEEF2E240CF5368003E4F542758047
:010BA000FF55
:010BA1002231
:100F1300E4FEEF25E0FF92C0D2C3C2C30EBE08F2C7
:010F230022AB
:100DB200E54B900BE893F4FF120F137424254BF8C4
:100DC200E6900BBD93FF120F13D2CCC2CC054BE5BC
:0A0DD2004BC394084003E4F54B22E4
:03000B00020E2BB7
:100E2B00C0E0C083C082C0D075D000C000C006C077
:100E3B0007120DB2D201D007D006D000D0D0D0828D
:050E4B00D083D0E0326D
:070F4F00D291120F56D2905F
:040F56007F05DFFE36
:010F5A002274
:0D0F3500120F4FC291120F56C290020F56BC
:0A0F6600C291120F51D291020F56F2
:0A0F7000C291120F51C290020F56F9
:080F8400120F4FC290020F563C
:0A0EE800AC07120F357FA2120E9620
:0C0EF200120F4FA29192D5C290020F5631
:020E9600AE07A5
:100E98007D08EE30E704D2918002C291EE25E0FE93
:0A0EA800120F51C290120F56DDE840
:010EB200221D
:100EB3007D08D291D290120F56EE25E0FE309101BB
:0A0EC3000EC290120F56DDECAF06D0
:010ECD002202
:100D8700120EE820D522AF04120E96120EF220D5CD
:100D970017120973FF120E96740129F9E43AFA1231
:0B0DA7000EF220D503D519E9020F66FB
:100D1900120EE820D536AF04120E96120EF220D527
:100D29002B120F357FA3120E96120EF220D51D122B
:100D39000EB3EF1209B9740129F9E43AFAE5196415
:0F0D4900016003120F70D519E6120F84020F66B6
:100AAC00E4F593F594F591F592F595F596F5B1F588
:100ABC00B2F5B3F5B4F5C9F5CAF5CBF5CCF5E1F55E
:100ACC00E2F54B758E80758CD4758ACDD2A9D28CFB
:100ADC00D2AF7F0878247410F608DFFC7F08120C64
:100AEC00D7D2D5E522C3943C4002D2D5E52CC39491
:100AFC003C4002D2D5E539C394184002D2D530D54A
:100B0C000C752227752C2775390C120C00120C4D04
:100B1C00752611752911E4F545F536F537F544F5CB
:030B2C0042F5236C
:010B2F0022A3
:060E05008B128A13891410
:100E0B00E4FFAB12AA13A9148F8275830012098C0D
:100E1B00F599D2002000FD0FBF08E7AF43020F8CFE
:080F8C008F99D2002000FD2224
:100ECE00AD07AC06538EEF538EF7438E048CD6AF20
:0A0EDE00058FD753AFFB438E10229F
:100C9300BF020C438E017FE87EFF120ECE801BC283
:100CA3008E538EFE438E405389BF5389CF758DFF7C
:100CB300758BE8C2AB538FFDD28EE598543F444009
:100CC300F598D2ACD29C53A23F43A280C200E4F574
:040CD30048F5472277
:03002300020D5873
:100D5800C0E0C0D075D000C000309815C298745457
:100D68002547F8A6990547E547C3942040037547EA
:0F0D780000309904C299C200D000D0D0D0E03230
:100DDC00E4F593F594F591F592F595F596F5B1F555
:100DEC00B2F5B3F5B4F5C9F5CAF5CBF5CCF5E1F52B
:090DFC00E27F01120C93D2AF2238
:0A0F5B007F0878247411F608DFFC0B
:010F65002269
:060E74008B128A138914A1
:100E7A00E4FFAB12AA13A9148F8275830012098C9E
:0B0E8A00FE74242FF8A6060FBF08E737
:010E9500223A
:100F2400E4F5217F08784C7411F608DFFCE4F554ED
:010F3400229A
:0D0F4200C2C7C2C67BFF7A0B79A2020E0562
:080F9400D2C7C2C67535032265
:100EFE00E5357BFFB403067A0B79AB80047A0B7968
:050F0E00B4120E0522E3
:0A0F7A00D2C7D2C6E4F535020F24F9
:10080000E4F508120DDC120AAC120F24E4F535E50C
:10081000486547601720001474542548F8E6F50829
:100820000548E548C394204003E4F5483001E0C2A0
:1008300001C3E54A9410E54994274008E4F549F5D9
:100840004A120EFEE535B4031EAE49AF4A7C137D55
:10085000881209CBED4C700FE546D394054006E4B1
:10086000F546120F420546054AE54A70020549FF62
:10087000AE497C007DC81209CBED4C7032E53514D1
:10088000601C14602124027026E54CB41108120C7F
:10089000D7120C4D80197B007A00794C800E7B00BA
:1008A0007A00793A80067B007A00792D120E740561
:1008B00023E523C394324006E4F523120B30E536DA
:1008C000700302094CE5357022E536C39411401BD4
:1008D000E536D3941A5014E53675F01184AFF0AEB6
:1008E000210521744C2EF8A607805EE536641B7046
:0708F0002AE52164087052A3
:1008F700F509744C2509F8E62430FF740A2509F830
:10090700A6070509E509B408E97B007A00790A1208
:020917000E05CB
:10091900802EE535B4020DE536B41C08E4F5351230
:100929000F24801CE535B4030AE536B41E05120F01
:100939007A800DE535B40108E536B41D03120F942C
:10094900E4F536E508700302080FB474057535013E
:100959008012E508B466057535028008E508B46FAC
:0A09690003120F94E4F50802080FD2
:100A2C00020800E493A3F8E493A34003F68001F2D8
:100A3C0008DFF48029E493A3F85407240CC8C333CB
:100A4C00C4540F4420C8834004F456800146F6DF9A
:100A5C00E4800B0102040810204080900E50E47ECC
:100A6C00019360BCA3FF543F30E509541FFEE4938F
:100A7C00A360010ECF54C025E060A840B8E493A356
:100A8C00FAE493A3F8E493A3C8C582C8CAC583CA81
:100A9C00F0A3C8C582C8CAC583CADFE9DEE780BE39
:010E7300007E
:10097300BB010689828A83E0225002E722BBFE0282
:09098300E32289828A83E49322B5
:10098C00BB010CE58229F582E5833AF583E0225020
:10099C0006E92582F8E622BBFE06E92582F8E2226A
:0D09AC00E58229F582E5833AF583E4932284
:1009B900BB010689828A83F0225002F722BBFE011D
:0209C900F32217
:1009CB00BC000BBE0029EF8DF084FFADF022E4CC10
:1009DB00F875F008EF2FFFEE33FEEC33FCEE9DECD9
:1009EB00984005FCEE9DFE0FD5F0E9E4CEFD22ED1F
:1009FB00F8F5F0EE8420D21CFEADF075F008EF2F69
:100A0B00FFED33FD4007985006D5F0F222C398FD59
:050A1B000FD5F0EA22F6
:00000001FF
