:030000000208FDF6
:0C08FD00787FE4F6D8FD75817102094493
:100BAE003F065B4F666D7D077F6F777C395E79718F
:100BBE000040761E7038375C733E783D6750376E56
:100BCE00BF86DBCFE6EDFD87FFEF4601020408107E
:100BDE00204080000102000300000004000000001D
:030BEE0000000004
:100D8800012100013801083A1A1A1A1A1A1A1A1AED
:0D0D9800082D0F0F0F0F0F0F0F0F0135006B
:100B2400E539C3940A400AE53975F00A84F524804E
:100B340003752410E53975F00A8485F025752611AE
:100B4400E52C75F00A84F527E52C75F00A8485F008
:100B540028E52275F00A84F52AE52275F00A8485D1
:060B6400F02B752911229F
:100BF1007B007A0079127519037F02120C33E5121A
:100C0100C4540775F00AA4FFE512540F2FF522E52D
:100C110013C4540775F00AA4FFE513540F2FF52CE4
:100C2100E514C4540375F00AA4FFE514540F2FF51D
:010C31003989
:010C3200229F
:100AD700E52275F00A84C454F0FFE52275F00A8414
:100AE700E5F02FF512E52C75F00A84C454F0FFE504
:100AF7002C75F00A84E5F02FF513E53975F00A84B3
:100B0700C454F0FFE53975F00A84E5F02FF5147B3E
:0D0B1700007A0079127519037F02020CA10B
:040E78007F3CDFFEDE
:010E7C002253
:100A0D00AE437580F0120E78E58054F0F543758095
:100A1D000F120E78E580540F42436343FFEE65439A
:100A2D00704CAE37854337E5376040C2D5EE700464
:100A3D00D2D58012EEB5370E0542E542C39414406F
:100A4D0005754212D2D530D525E537C4540F900B1C
:100A5D00E193FE6019E537540F93FF6011EE25E029
:100A6D0025E0FEEF2E240CF5368003E4F54275806B
:010A7D00FF79
:010A7E002255
:100E0E00E4FEEF25E0FF92C0D2C3C2C30EBE08F2CD
:010E1E0022B1
:100CCC00E549900BD993F4FF120E0E74242549F8C4
:100CDC00E6900BAE93FF120E0ED2CCC2CC0549E5BA
:0A0CEC0049C394084003E4F54922CF
:03000B00020D1FC4
:100D1F00C0E0C083C082C0D075D000C000C006C084
:100D2F0007120CCCD201D007D006D000D0D0D08281
:050D3F00D083D0E0327A
:070E3D00D291120E44D29085
:040E44007F05DFFE49
:010E48002287
:0D0E3000120E3DC291120E44C290020E44FB
:0A0E5400C291120E3FD291020E442B
:0A0E5E00C291120E3FC290020E4432
:080E6800120E3DC290020E447F
:0A0DF800AC07120E307FA2120DA608
:0C0E0200120E3DA29192D5C290020E4447
:020DA600AE0796
:100DA8007D08EE30E704D2918002C291EE25E0FE84
:0A0DB800120E3FC290120E44DDE857
:010DC200220E
:100DC3007D08D291D290120E44EE25E0FE309101BF
:0A0DD3000EC290120E44DDECAF06D4
:010DDD0022F3
:100CA100120DF820D522AF04120DA6120E0220D586
:100CB10017120A7FFF120DA6740129F9E43AFA12FC
:0B0CC1000E0220D503D519E9020E54E5
:100C3300120DF820D536AF04120DA6120E0220D5E0
:100C43002B120E307FA3120DA6120E0220D51D12F9
:100C53000DC3EF120AC5740129F9E43AFAE51964E0
:0F0C6300016003120E5ED519E6120E68020E54E0
:10098900E4F593F594F591F592F595F596F5B1F5AC
:10099900B2F5B3F5B4F5C9F5CAF5CBF5CCF5E1F582
:1009A900E2F549758E80758CD4758ACDD2A9D28C21
:1009B900D2AF7F0878247410F608DFFC7F08120B89
:1009C900F1D2D5E522C3943C4002D2D5E52CC3949B
:1009D9003C4002D2D5E539C394184002D2D530D56E
:1009E9000C752227752C2775390C120AD7120B247E
:1009F900752611752911E4F544F536F537F543F5F2
:030A090042F52390
:010A0C0022C7
:060D44008B128A138914D2
:100D4A00E4FFAB12AA13A9148F82758300120A98C2
:0B0D5A00F599D2002000FD0FBF08E754
:010D6500226B
:080E70008F99D2002000FD2241
:100DDE00AD07AC06538EEF538EF7438E048CD6AF11
:0A0DEE00058FD753AFFB438E102290
:100B6A00BF020C438E017FE87EFF120DDE801BC29E
:100B7A008E538EFE438E405389BF5389CF758DFFA6
:100B8A00758BE8C2AB538FFDD28EE598543F444033
:100B9A00F598D2ACD29C53A23F43A280C200E4F59E
:040BAA0046F54522A5
:03002300020C725A
:100C7200C0E0C0D075D000C000309815C298745240
:100C82002545F8A6990545E545C3942040037545D9
:0F0C920000309904C299C200D000D0D0D0E03217
:100CF600E4F593F594F591F592F595F596F5B1F53C
:100D0600B2F5B3F5B4F5C9F5CAF5CBF5CCF5E1F511
:090D1600E27F01120B6AD2AF2248
:0A0E49007F0878247411F608DFFC1E
:010E5300227C
:060D66008B128A138914B0
:100D6C00E4FFAB12AA13A9148F82758300120A98A0
:0B0D7C00FE74242FF8A6060FBF08E746
:010D87002249
:100E1F00E4F5217F08784A7411F608DFFCE4F552F7
:010E2F0022A0
:10080000E4F508120CF6120989120E1FE54665453B
:10081000601720001474522546F8E6F5080546E5F1
:1008200046C394204003E4F5463001E0C201054888
:10083000E54870020547C394C8E5479400402AE4A0
:10084000F547F548E53514600F146014240270195B
:100850007B007A00794A800E7B007A00793A800624
:100860007B007A00792D120D660523E523C39432AF
:100870004006E4F523120A0DE5366064E535702282
:10088000E536C39411401BE536D3941A5014E5366F
:1008900075F01184AFF0AE210521744A2EF8A60739
:0E08A000803BE536641B702AE5216408702F4A
:1008AE00F509744A2509F8E62430FF740A2509F87B
:1008BE00A6070509E509B408E97B007A00790A1252
:0208CE000D44D7
:1008D000800BE536B41C06E4F535120E1FE4F53640
:1008E000E508700302080CB474057535018008E54D
:0D08F00008B46603753502E4F50802080C33
:10090900020800E493A3F8E493A34003F68001F2FC
:1009190008DFF48029E493A3F85407240CC8C333EF
:10092900C4540F4420C8834004F456800146F6DFBE
:10093900E4800B0102040810204080900D88E47EB9
:10094900019360BCA3FF543F30E509541FFEE493B3
:10095900A360010ECF54C025E060A840B8E493A37A
:10096900FAE493A3F8E493A3C8C582C8CAC583CAA5
:10097900F0A3C8C582C8CAC583CADFE9DEE780BE5D
:010DA500004D
:100A7F00BB010689828A83E0225002E722BBFE0275
:090A8F00E32289828A83E49322A8
:100A9800BB010CE58229F582E5833AF583E0225013
:100AA80006E92582F8E622BBFE06E92582F8E2225D
:0D0AB800E58229F582E5833AF583E4932277
:100AC500BB010689828A83F0225002F722BBFE0110
:020AD500F3220A
:00000001FF
