:03000000020A20D1
:0C0A2000787FE4F6D8FD758172020A6749
:100BA2006161616161616161006F6F6F6F6F6F6F32
:100BB2006F006363636363636363003F065B4F6657
:100BC2006D7D077F6F777C395E79710040761E708C
:100BD20038375C733E783D6750376EBF86DBCFE6B1
:100BE200EDFD87FFEF46010204081020408000015E
:0E0BF2000200030000000400000000000000EC
:100E6E00012100013801083A1A1A1A1A1A1A1A1A06
:100E7E00082D0F0F0F0F0F0F0F0F0135000145003B
:100C4D00E539C3940A400AE53975F00A84F5248024
:100C5D0003752410E53975F00A8485F02575261184
:100C6D00E52C75F00A84F527E52C75F00A8485F0DE
:100C7D0028E52275F00A84F52AE52275F00A8485A7
:060C8D00F02B7529112275
:100CD7007B007A0079127519037F02120D19E5124C
:100CE700C4540775F00AA4FFE512540F2FF522E547
:100CF70013C4540775F00AA4FFE513540F2FF52CFE
:100D0700E514C4540375F00AA4FFE514540F2FF536
:010D170039A2
:010D180022B8
:100C0000E52275F00A84C454F0FFE52275F00A84E9
:100C1000E5F02FF512E52C75F00A84C454F0FFE5D9
:100C20002C75F00A84E5F02FF513E53975F00A8488
:100C3000C454F0FFE53975F00A84E5F02FF5147B14
:0D0C4000007A0079127519037F02020D87FA
:040F95007F3CDFFEC0
:010F99002235
:100B3000AE437580F0120F95E58054F0F543758053
:100B40000F120F95E580540F42436343FFEE654358
:100B5000704CAE37854337E5376040C2D5EE700440
:100B6000D2D58012EEB5370E0542E542C39414404B
:100B700005754212D2D530D525E537C4540F900BF8
:100B8000F093FE6019E537540F93FF6011EE25E0F6
:100B900025E0FEEF2E240CF5368003E4F542758047
:010BA000FF55
:010BA1002231
:100F0C00E4FEEF25E0FF92C0D2C3C2C30EBE08F2CE
:010F1C0022B2
:100DB200E54A900BE893F4FF120F0C7424254AF8CD
:100DC200E6900BBD93FF120F0CD2CCC2CC054AE5C4
:0A0DD2004AC394084003E4F54A22E6
:03000B00020E05DD
:100E0500C0E0C083C082C0D075D000C000C006C09D
:100E150007120DB2D201D007D006D000D0D0D082B3
:050E2500D083D0E03293
:070F4800D291120F4FD2906D
:040F4F007F05DFFE3D
:010F5300227B
:0D0F2E00120F48C291120F4FC290020F4FD8
:0A0F5F00C291120F4AD291020F4F07
:0A0F6900C291120F4AC290020F4F0E
:080F7D00120F48C290020F4F51
:0A0EE100AC07120F2E7FA2120E8F35
:0C0EEB00120F48A29192D5C290020F4F46
:020E8F00AE07AC
:100E91007D08EE30E704D2918002C291EE25E0FE9A
:0A0EA100120F4AC290120F4FDDE855
:010EAB002224
:100EAC007D08D291D290120F4FEE25E0FE309101C9
:0A0EBC000EC290120F4FDDECAF06DE
:010EC6002209
:100D8700120EE120D522AF04120E8F120EEB20D5E2
:100D970017120973FF120E8F740129F9E43AFA1238
:0B0DA7000EEB20D503D519E9020F5F09
:100D1900120EE120D536AF04120E8F120EEB20D53C
:100D29002B120F2E7FA3120E8F120EEB20D51D1240
:100D39000EACEF1209B9740129F9E43AFAE519641C
:0F0D4900016003120F69D519E6120F7D020F5FCB
:100AAC00E4F593F594F591F592F595F596F5B1F588
:100ABC00B2F5B3F5B4F5C9F5CAF5CBF5CCF5E1F55E
:100ACC00E2F54A758E80758CD4758ACDD2A9D28CFC
:100ADC00D2AF7F0878247410F608DFFC7F08120C64
:100AEC00D7D2D5E522C3943C4002D2D5E52CC39491
:100AFC003C4002D2D5E539C394184002D2D530D54A
:100B0C000C752227752C2775390C120C00120C4D04
:100B1C00752611752911E4F544F536F537F543F5CD
:030B2C0042F5236C
:010B2F0022A3
:060E2A008B128A138914EB
:100E3000E4FFAB12AA13A9148F8275830012098CE8
:0B0E4000F599D2002000FD0FBF08E76D
:010E4B002284
:080F85008F99D2002000FD222B
:100EC700AD07AC06538EEF538EF7438E048CD6AF27
:0A0ED700058FD753AFFB438E1022A6
:100C9300BF020C438E017FE87EFF120EC7801BC28A
:100CA3008E538EFE438E405389BF5389CF758DFF7C
:100CB300758BE8C2AB538FFDD28EE598543F444009
:100CC300F598D2ACD29C53A23F43A280C200E4F574
:040CD30047F5462279
:03002300020D5873
:100D5800C0E0C0D075D000C000309815C298745358
:100D68002546F8A6990546E546C3942040037546EE
:0F0D780000309904C299C200D000D0D0D0E03230
:100DDC00E4F593F594F591F592F595F596F5B1F555
:100DEC00B2F5B3F5B4F5C9F5CAF5CBF5CCF5E1F52B
:090DFC00E27F01120C93D2AF2238
:0A0F54007F0878247411F608DFFC12
:010F5E002270
:060E4C008B128A138914C9
:100E5200E4FFAB12AA13A9148F8275830012098CC6
:0B0E6200FE74242FF8A6060FBF08E75F
:010E6D002262
:100F1D00E4F5217F08784B7411F608DFFCE4F553F6
:010F2D0022A1
:0D0F3B00C2C7C2C67BFF7A0B79A2020E2A44
:080F8D00D2C7C2C6753503226C
:100EF700E5357BFFB403067A0B79AB80047A0B796F
:050F0700B4120E2A22C5
:0A0F7300D2C7D2C6E4F535020F1D07
:10080000E4F508120DDC120AAC120F1DE4F535E513
:10081000476546601720001474532547F8E6F5082D
:100820000547E547C394204003E4F5473001E0C2A3
:1008300001C3E5499410E54894274008E4F548F5DC
:1008400049120EF7E535B4031EAE48AF497C137D5F
:10085000881209CBED4C700FE545D394054006E4B2
:10086000F545120F3B05450549E54970020548FF6E
:10087000AE487C007DC81209CBED4C7032E53514D2
:10088000601C14602124027026E54BB41108120C80
:10089000D7120C4D80197B007A00794B800E7B00BB
:1008A0007A00793A80067B007A00792D120E4C0589
:1008B00023E523C394324006E4F523120B30E536DA
:1008C000700302094CE5357022E536C39411401BD4
:1008D000E536D3941A5014E53675F01184AFF0AEB6
:1008E000210521744B2EF8A607805EE536641B7047
:0708F0002AE52164087052A3
:1008F700F509744B2509F8E62430FF740A2509F831
:10090700A6070509E509B408E97B007A00790A1208
:020917000E2AA6
:10091900802EE535B4020DE536B41C08E4F5351230
:100929000F1D801CE535B4030AE536B41E05120F08
:1009390073800DE535B40108E536B41D03120F8D3A
:10094900E4F536E508700302080FB474057535013E
:100959008012E508B466057535028008E508B46FAC
:0A09690003120F8DE4F50802080FD9
:100A2C00020800E493A3F8E493A34003F68001F2D8
:100A3C0008DFF48029E493A3F85407240CC8C333CB
:100A4C00C4540F4420C8834004F456800146F6DF9A
:100A5C00E4800B0102040810204080900E6EE47EAE
:100A6C00019360BCA3FF543F30E509541FFEE4938F
:100A7C00A360010ECF54C025E060A840B8E493A356
:100A8C00FAE493A3F8E493A3C8C582C8CAC583CA81
:100A9C00F0A3C8C582C8CAC583CADFE9DEE780BE39
:010E8E000063
:10097300BB010689828A83E0225002E722BBFE0282
:09098300E32289828A83E49322B5
:10098C00BB010CE58229F582E5833AF583E0225020
:10099C0006E92582F8E622BBFE06E92582F8E2226A
:0D09AC00E58229F582E5833AF583E4932284
:1009B900BB010689828A83F0225002F722BBFE011D
:0209C900F32217
:1009CB00BC000BBE0029EF8DF084FFADF022E4CC10
:1009DB00F875F008EF2FFFEE33FEEC33FCEE9DECD9
:1009EB00984005FCEE9DFE0FD5F0E9E4CEFD22ED1F
:1009FB00F8F5F0EE8420D21CFEADF075F008EF2F69
:100A0B00FFED33FD4007985006D5F0F222C398FD59
:050A1B000FD5F0EA22F6
:00000001FF
